{
  "contractName": "HelloWorld",
  "abi": [
    {
      "inputs": [],
      "payable": false,
      "stateMutability": "nonpayable",
      "type": "constructor"
    },
    {
      "constant": true,
      "inputs": [],
      "name": "getMessage",
      "outputs": [
        {
          "name": "",
          "type": "string"
        }
      ],
      "payable": false,
      "stateMutability": "view",
      "type": "function"
    },
    {
      "constant": false,
      "inputs": [
        {
          "name": "newMessage",
          "type": "string"
        }
      ],
      "name": "setMessage",
      "outputs": [],
      "payable": false,
      "stateMutability": "nonpayable",
      "type": "function"
    }
  ],
  "bytecode": "0x6060604052341561000f57600080fd5b6040805190810160405280600c81526020017f68656c6c6f20776f726c642100000000000000000000000000000000000000008152506000908051906020019061005a929190610060565b50610105565b828054600181600116156101000203166002900490600052602060002090601f016020900481019282601f106100a157805160ff19168380011785556100cf565b828001600101855582156100cf579182015b828111156100ce5782518255916020019190600101906100b3565b5b5090506100dc91906100e0565b5090565b61010291905b808211156100fe5760008160009055506001016100e6565b5090565b90565b6102e3806101146000396000f30060606040526004361061004c576000357c0100000000000000000000000000000000000000000000000000000000900463ffffffff168063368b877214610051578063ce6d41de146100ae575b600080fd5b341561005c57600080fd5b6100ac600480803590602001908201803590602001908080601f0160208091040260200160405190810160405280939291908181526020018383808284378201915050505050509190505061013c565b005b34156100b957600080fd5b6100c1610156565b6040518080602001828103825283818151815260200191508051906020019080838360005b838110156101015780820151818401526020810190506100e6565b50505050905090810190601f16801561012e5780820380516001836020036101000a031916815260200191505b509250505060405180910390f35b80600090805190602001906101529291906101fe565b5050565b61015e61027e565b60008054600181600116156101000203166002900480601f0160208091040260200160405190810160405280929190818152602001828054600181600116156101000203166002900480156101f45780601f106101c9576101008083540402835291602001916101f4565b820191906000526020600020905b8154815290600101906020018083116101d757829003601f168201915b5050505050905090565b828054600181600116156101000203166002900490600052602060002090601f016020900481019282601f1061023f57805160ff191683800117855561026d565b8280016001018555821561026d579182015b8281111561026c578251825591602001919060010190610251565b5b50905061027a9190610292565b5090565b602060405190810160405280600081525090565b6102b491905b808211156102b0576000816000905550600101610298565b5090565b905600a165627a7a7230582027ee1425e702d9ff9228b96305fcf55679ed8267aee8291597a7d39e896e87e10029",
  "source": "pragma solidity ^0.4.4;\n\n\ncontract HelloWorld {\n    string private message;\n\n    function HelloWorld() {\n      // constructor\n        message = \"hello world!\";\n    }\n\n    function getMessage() constant returns (string){\n      return message;\n    }\n\n    function setMessage(string newMessage){\n      message = newMessage;\n    }\n}\n",
  "sourcePath": "/Users/hapillai/Projects/workshop/contracts/HelloWorld.sol",
  "compiler": {
    "name": "solc",
    "version": "0.4.21+commit.dfe3193c.Emscripten.clang"
  },
  "schemaVersion": "2.0.0",
  "updatedAt": "2018-04-09T10:30:04.711Z"
}